{
  "_format": "hh-sol-artifact-1",
  "contractName": "FlashLoanReceiver",
  "sourceName": "contracts/FlashLoanReceiver.sol",
  "abi": [
    {
      "inputs": [
        {
          "internalType": "address",
          "name": "poolAddress",
          "type": "address"
        }
      ],
      "stateMutability": "nonpayable",
      "type": "constructor"
    },
    {
      "anonymous": false,
      "inputs": [
        {
          "indexed": false,
          "internalType": "address",
          "name": "token",
          "type": "address"
        },
        {
          "indexed": false,
          "internalType": "uint256",
          "name": "amount",
          "type": "uint256"
        }
      ],
      "name": "LoanReceived",
      "type": "event"
    },
    {
      "inputs": [
        {
          "internalType": "uint256",
          "name": "amount",
          "type": "uint256"
        }
      ],
      "name": "executeFlashLoan",
      "outputs": [],
      "stateMutability": "nonpayable",
      "type": "function"
    },
    {
      "inputs": [
        {
          "internalType": "address",
          "name": "tokenAddress",
          "type": "address"
        },
        {
          "internalType": "uint256",
          "name": "amount",
          "type": "uint256"
        }
      ],
      "name": "receiveTokens",
      "outputs": [],
      "stateMutability": "payable",
      "type": "function"
    }
  ],
  "bytecode": "0x608060405234801561001057600080fd5b506040516107ef3803806107ef8339818101604052810190610032919061011c565b806000806101000a81548173ffffffffffffffffffffffffffffffffffffffff021916908373ffffffffffffffffffffffffffffffffffffffff16021790555033600160006101000a81548173ffffffffffffffffffffffffffffffffffffffff021916908373ffffffffffffffffffffffffffffffffffffffff16021790555050610149565b600080fd5b600073ffffffffffffffffffffffffffffffffffffffff82169050919050565b60006100e9826100be565b9050919050565b6100f9816100de565b811461010457600080fd5b50565b600081519050610116816100f0565b92915050565b600060208284031215610132576101316100b9565b5b600061014084828501610107565b91505092915050565b610697806101586000396000f3fe6080604052600436106100295760003560e01c8063357291301461002e578063fb056f681461004a575b600080fd5b610048600480360381019061004391906103b2565b610073565b005b34801561005657600080fd5b50610071600480360381019061006c91906103f2565b6101fb565b005b60008054906101000a900473ffffffffffffffffffffffffffffffffffffffff1673ffffffffffffffffffffffffffffffffffffffff163373ffffffffffffffffffffffffffffffffffffffff1614610101576040517f08c379a00000000000000000000000000000000000000000000000000000000081526004016100f89061047c565b60405180910390fd5b7f1eb85bd961c2383a0fab35aca88c37d338e2c256ca614015fb37027205bfe94982826040516101329291906104ba565b60405180910390a18173ffffffffffffffffffffffffffffffffffffffff1663a9059cbb33836040518363ffffffff1660e01b81526004016101759291906104ba565b6020604051808303816000875af1158015610194573d6000803e3d6000fd5b505050506040513d601f19601f820116820180604052508101906101b8919061051b565b6101f7576040517f08c379a00000000000000000000000000000000000000000000000000000000081526004016101ee90610594565b60405180910390fd5b5050565b600160009054906101000a900473ffffffffffffffffffffffffffffffffffffffff1673ffffffffffffffffffffffffffffffffffffffff163373ffffffffffffffffffffffffffffffffffffffff161461028b576040517f08c379a000000000000000000000000000000000000000000000000000000000815260040161028290610626565b60405180910390fd5b60008054906101000a900473ffffffffffffffffffffffffffffffffffffffff1673ffffffffffffffffffffffffffffffffffffffff16639ab603b9826040518263ffffffff1660e01b81526004016102e49190610646565b600060405180830381600087803b1580156102fe57600080fd5b505af1158015610312573d6000803e3d6000fd5b5050505050565b600080fd5b600073ffffffffffffffffffffffffffffffffffffffff82169050919050565b60006103498261031e565b9050919050565b6103598161033e565b811461036457600080fd5b50565b60008135905061037681610350565b92915050565b6000819050919050565b61038f8161037c565b811461039a57600080fd5b50565b6000813590506103ac81610386565b92915050565b600080604083850312156103c9576103c8610319565b5b60006103d785828601610367565b92505060206103e88582860161039d565b9150509250929050565b60006020828403121561040857610407610319565b5b60006104168482850161039d565b91505092915050565b600082825260208201905092915050565b7f53656e646572206d75737420626520706f6f6c00000000000000000000000000600082015250565b600061046660138361041f565b915061047182610430565b602082019050919050565b6000602082019050818103600083015261049581610459565b9050919050565b6104a58161033e565b82525050565b6104b48161037c565b82525050565b60006040820190506104cf600083018561049c565b6104dc60208301846104ab565b9392505050565b60008115159050919050565b6104f8816104e3565b811461050357600080fd5b50565b600081519050610515816104ef565b92915050565b60006020828403121561053157610530610319565b5b600061053f84828501610506565b91505092915050565b7f5472616e73666572206f6620746f6b656e73206661696c656400000000000000600082015250565b600061057e60198361041f565b915061058982610548565b602082019050919050565b600060208201905081810360008301526105ad81610571565b9050919050565b7f4f6e6c79206f776e65722063616e206578656375746520666c617368206c6f6160008201527f6e00000000000000000000000000000000000000000000000000000000000000602082015250565b600061061060218361041f565b915061061b826105b4565b604082019050919050565b6000602082019050818103600083015261063f81610603565b9050919050565b600060208201905061065b60008301846104ab565b9291505056fea2646970667358221220a17e96bf1b2095f35f7bfdaaf685095c17b0f971e40d4c862e81ef7f7bbdd98964736f6c63430008140033",
  "linkReferences": {},
  "deployedLinkReferences": {}
}