{
  "_format": "hh-sol-artifact-1",
  "contractName": "FlashLoan",
  "sourceName": "contracts/FlashLoan.sol",
  "abi": [
    {
      "inputs": [
        {
          "internalType": "address",
          "name": "tokenAddress",
          "type": "address"
        }
      ],
      "stateMutability": "nonpayable",
      "type": "constructor"
    },
    {
      "inputs": [
        {
          "internalType": "uint256",
          "name": "amount",
          "type": "uint256"
        }
      ],
      "name": "depositTokens",
      "outputs": [],
      "stateMutability": "payable",
      "type": "function"
    },
    {
      "inputs": [
        {
          "internalType": "uint256",
          "name": "borrowAmount",
          "type": "uint256"
        }
      ],
      "name": "flashLoan",
      "outputs": [],
      "stateMutability": "payable",
      "type": "function"
    },
    {
      "inputs": [],
      "name": "poolBalance",
      "outputs": [
        {
          "internalType": "uint256",
          "name": "",
          "type": "uint256"
        }
      ],
      "stateMutability": "view",
      "type": "function"
    },
    {
      "inputs": [],
      "name": "token",
      "outputs": [
        {
          "internalType": "contract Token",
          "name": "",
          "type": "address"
        }
      ],
      "stateMutability": "view",
      "type": "function"
    }
  ],
  "bytecode": "0x60806040523480156200001157600080fd5b5060405162000c7538038062000c7583398181016040528101906200003791906200015a565b600073ffffffffffffffffffffffffffffffffffffffff168173ffffffffffffffffffffffffffffffffffffffff1603620000a9576040517f08c379a0000000000000000000000000000000000000000000000000000000008152600401620000a090620001ed565b60405180910390fd5b806000806101000a81548173ffffffffffffffffffffffffffffffffffffffff021916908373ffffffffffffffffffffffffffffffffffffffff160217905550506200020f565b600080fd5b600073ffffffffffffffffffffffffffffffffffffffff82169050919050565b60006200012282620000f5565b9050919050565b620001348162000115565b81146200014057600080fd5b50565b600081519050620001548162000129565b92915050565b600060208284031215620001735762000172620000f0565b5b6000620001838482850162000143565b91505092915050565b600082825260208201905092915050565b7f546f6b656e20616464726573732063616e6e6f74206265207a65726f00000000600082015250565b6000620001d5601c836200018c565b9150620001e2826200019d565b602082019050919050565b600060208201905081810360008301526200020881620001c6565b9050919050565b610a56806200021f6000396000f3fe60806040526004361061003f5760003560e01c806396365d44146100445780639ab603b91461006f578063dd49756e1461008b578063fc0c546a146100a7575b600080fd5b34801561005057600080fd5b506100596100d2565b6040516100669190610577565b60405180910390f35b610089600480360381019061008491906105c3565b6100d8565b005b6100a560048036038101906100a091906105c3565b610422565b005b3480156100b357600080fd5b506100bc610524565b6040516100c9919061066f565b60405180910390f35b60015481565b6000811161011b576040517f08c379a0000000000000000000000000000000000000000000000000000000008152600401610112906106e7565b60405180910390fd5b60008060009054906101000a900473ffffffffffffffffffffffffffffffffffffffff1673ffffffffffffffffffffffffffffffffffffffff166370a08231306040518263ffffffff1660e01b81526004016101779190610728565b602060405180830381865afa158015610194573d6000803e3d6000fd5b505050506040513d601f19601f820116820180604052508101906101b89190610758565b9050818110156101fd576040517f08c379a00000000000000000000000000000000000000000000000000000000081526004016101f4906107d1565b60405180910390fd5b806001541461020f5761020e6107f1565b5b60008054906101000a900473ffffffffffffffffffffffffffffffffffffffff1673ffffffffffffffffffffffffffffffffffffffff1663a9059cbb33846040518363ffffffff1660e01b815260040161026a929190610820565b6020604051808303816000875af1158015610289573d6000803e3d6000fd5b505050506040513d601f19601f820116820180604052508101906102ad9190610881565b503373ffffffffffffffffffffffffffffffffffffffff16633572913060008054906101000a900473ffffffffffffffffffffffffffffffffffffffff16846040518363ffffffff1660e01b8152600401610309929190610820565b600060405180830381600087803b15801561032357600080fd5b505af1158015610337573d6000803e3d6000fd5b5050505060008060009054906101000a900473ffffffffffffffffffffffffffffffffffffffff1673ffffffffffffffffffffffffffffffffffffffff166370a08231306040518263ffffffff1660e01b81526004016103979190610728565b602060405180830381865afa1580156103b4573d6000803e3d6000fd5b505050506040513d601f19601f820116820180604052508101906103d89190610758565b90508181101561041d576040517f08c379a0000000000000000000000000000000000000000000000000000000008152600401610414906108fa565b60405180910390fd5b505050565b60008111610465576040517f08c379a000000000000000000000000000000000000000000000000000000000815260040161045c90610966565b60405180910390fd5b60008054906101000a900473ffffffffffffffffffffffffffffffffffffffff1673ffffffffffffffffffffffffffffffffffffffff166323b872dd3330846040518463ffffffff1660e01b81526004016104c293929190610986565b6020604051808303816000875af11580156104e1573d6000803e3d6000fd5b505050506040513d601f19601f820116820180604052508101906105059190610881565b5061051b8160015461054890919063ffffffff16565b60018190555050565b60008054906101000a900473ffffffffffffffffffffffffffffffffffffffff1681565b6000818361055691906109ec565b905092915050565b6000819050919050565b6105718161055e565b82525050565b600060208201905061058c6000830184610568565b92915050565b600080fd5b6105a08161055e565b81146105ab57600080fd5b50565b6000813590506105bd81610597565b92915050565b6000602082840312156105d9576105d8610592565b5b60006105e7848285016105ae565b91505092915050565b600073ffffffffffffffffffffffffffffffffffffffff82169050919050565b6000819050919050565b600061063561063061062b846105f0565b610610565b6105f0565b9050919050565b60006106478261061a565b9050919050565b60006106598261063c565b9050919050565b6106698161064e565b82525050565b60006020820190506106846000830184610660565b92915050565b600082825260208201905092915050565b7f4d75737420626f72726f77206174206c65617374206f6e6520746f6b656e0000600082015250565b60006106d1601e8361068a565b91506106dc8261069b565b602082019050919050565b60006020820190508181036000830152610700816106c4565b9050919050565b6000610712826105f0565b9050919050565b61072281610707565b82525050565b600060208201905061073d6000830184610719565b92915050565b60008151905061075281610597565b92915050565b60006020828403121561076e5761076d610592565b5b600061077c84828501610743565b91505092915050565b7f4e6f7420656e6f75676820746f6b656e7320696e20706f6f6c00000000000000600082015250565b60006107bb60198361068a565b91506107c682610785565b602082019050919050565b600060208201905081810360008301526107ea816107ae565b9050919050565b7f4e487b7100000000000000000000000000000000000000000000000000000000600052600160045260246000fd5b60006040820190506108356000830185610719565b6108426020830184610568565b9392505050565b60008115159050919050565b61085e81610849565b811461086957600080fd5b50565b60008151905061087b81610855565b92915050565b60006020828403121561089757610896610592565b5b60006108a58482850161086c565b91505092915050565b7f466c617368206c6f616e206861736e2774206265656e2070616964206261636b600082015250565b60006108e460208361068a565b91506108ef826108ae565b602082019050919050565b60006020820190508181036000830152610913816108d7565b9050919050565b7f4d757374206465706f736974206174206c65617374206f6e6520746f6b656e00600082015250565b6000610950601f8361068a565b915061095b8261091a565b602082019050919050565b6000602082019050818103600083015261097f81610943565b9050919050565b600060608201905061099b6000830186610719565b6109a86020830185610719565b6109b56040830184610568565b949350505050565b7f4e487b7100000000000000000000000000000000000000000000000000000000600052601160045260246000fd5b60006109f78261055e565b9150610a028361055e565b9250828201905080821115610a1a57610a196109bd565b5b9291505056fea2646970667358221220385d6b7c34eaeb57df83c842350f991b2feafb5e7d36c58b9e6cec7336a078fe64736f6c63430008140033",
  "linkReferences": {},
  "deployedLinkReferences": {}
}